{
  "contractName": "Pool",
  "abi": [
    {
      "inputs": [
        {
          "internalType": "address",
          "name": "addr1",
          "type": "address"
        },
        {
          "internalType": "address",
          "name": "addr2",
          "type": "address"
        }
      ],
      "stateMutability": "nonpayable",
      "type": "constructor"
    },
    {
      "anonymous": false,
      "inputs": [
        {
          "indexed": true,
          "internalType": "address",
          "name": "sender",
          "type": "address"
        },
        {
          "indexed": false,
          "internalType": "uint256",
          "name": "amount",
          "type": "uint256"
        }
      ],
      "name": "Claim",
      "type": "event"
    },
    {
      "anonymous": false,
      "inputs": [
        {
          "indexed": true,
          "internalType": "address",
          "name": "sender",
          "type": "address"
        },
        {
          "indexed": false,
          "internalType": "uint256",
          "name": "amount",
          "type": "uint256"
        },
        {
          "indexed": false,
          "internalType": "uint256",
          "name": "balance",
          "type": "uint256"
        }
      ],
      "name": "Deposit",
      "type": "event"
    },
    {
      "anonymous": false,
      "inputs": [
        {
          "indexed": true,
          "internalType": "address",
          "name": "sender",
          "type": "address"
        },
        {
          "indexed": false,
          "internalType": "uint256",
          "name": "amount",
          "type": "uint256"
        },
        {
          "indexed": false,
          "internalType": "uint256",
          "name": "balance",
          "type": "uint256"
        }
      ],
      "name": "Withdraw",
      "type": "event"
    },
    {
      "inputs": [
        {
          "internalType": "address",
          "name": "",
          "type": "address"
        }
      ],
      "name": "distributed",
      "outputs": [
        {
          "internalType": "uint256",
          "name": "",
          "type": "uint256"
        }
      ],
      "stateMutability": "view",
      "type": "function",
      "constant": true
    },
    {
      "inputs": [
        {
          "internalType": "address",
          "name": "",
          "type": "address"
        }
      ],
      "name": "ledger",
      "outputs": [
        {
          "internalType": "uint256",
          "name": "",
          "type": "uint256"
        }
      ],
      "stateMutability": "view",
      "type": "function",
      "constant": true
    },
    {
      "inputs": [
        {
          "internalType": "uint256",
          "name": "amount",
          "type": "uint256"
        }
      ],
      "name": "deposit",
      "outputs": [],
      "stateMutability": "nonpayable",
      "type": "function"
    },
    {
      "inputs": [
        {
          "internalType": "uint256",
          "name": "amount",
          "type": "uint256"
        }
      ],
      "name": "withdraw",
      "outputs": [],
      "stateMutability": "nonpayable",
      "type": "function"
    },
    {
      "inputs": [],
      "name": "claim",
      "outputs": [],
      "stateMutability": "nonpayable",
      "type": "function"
    }
  ],
  "bytecode": "0x60806040523480156200001157600080fd5b50604051620012113803806200121183398181016040528101906200003791906200012a565b816000806101000a81548173ffffffffffffffffffffffffffffffffffffffff021916908373ffffffffffffffffffffffffffffffffffffffff16021790555080600160006101000a81548173ffffffffffffffffffffffffffffffffffffffff021916908373ffffffffffffffffffffffffffffffffffffffff160217905550505062000171565b600080fd5b600073ffffffffffffffffffffffffffffffffffffffff82169050919050565b6000620000f282620000c5565b9050919050565b6200010481620000e5565b81146200011057600080fd5b50565b6000815190506200012481620000f9565b92915050565b60008060408385031215620001445762000143620000c0565b5b6000620001548582860162000113565b9250506020620001678582860162000113565b9150509250929050565b61109080620001816000396000f3fe608060405234801561001057600080fd5b50600436106100575760003560e01c80632e1a7d4d1461005c5780634e71d92d14610078578063578bcf3514610082578063b6b55f25146100b2578063fbfa941f146100ce575b600080fd5b61007660048036038101906100719190610a84565b6100fe565b005b61008061030f565b005b61009c60048036038101906100979190610b0f565b61054d565b6040516100a99190610b4b565b60405180910390f35b6100cc60048036038101906100c79190610a84565b610565565b005b6100e860048036038101906100e39190610b0f565b6108fa565b6040516100f59190610b4b565b60405180910390f35b80600260003373ffffffffffffffffffffffffffffffffffffffff1673ffffffffffffffffffffffffffffffffffffffff168152602001908152602001600020541015610180576040517f08c379a000000000000000000000000000000000000000000000000000000000815260040161017790610bc3565b60405180910390fd5b610188610912565b60008054906101000a900473ffffffffffffffffffffffffffffffffffffffff1673ffffffffffffffffffffffffffffffffffffffff1663a9059cbb33836040518363ffffffff1660e01b81526004016101e3929190610bf2565b6020604051808303816000875af1158015610202573d6000803e3d6000fd5b505050506040513d601f19601f820116820180604052508101906102269190610c53565b5080600260003373ffffffffffffffffffffffffffffffffffffffff1673ffffffffffffffffffffffffffffffffffffffff16815260200190815260200160002060008282546102769190610caf565b925050819055503373ffffffffffffffffffffffffffffffffffffffff167ff279e6a1f5e320cca91135676d9cb6e44ca8a08c0b88342bcdb1144f6511b56882600260003373ffffffffffffffffffffffffffffffffffffffff1673ffffffffffffffffffffffffffffffffffffffff16815260200190815260200160002054604051610304929190610ce3565b60405180910390a250565b6000600360003373ffffffffffffffffffffffffffffffffffffffff1673ffffffffffffffffffffffffffffffffffffffff1681526020019081526020016000205411610391576040517f08c379a000000000000000000000000000000000000000000000000000000000815260040161038890610d7e565b60405180910390fd5b610399610912565b600160009054906101000a900473ffffffffffffffffffffffffffffffffffffffff1673ffffffffffffffffffffffffffffffffffffffff1663a9059cbb33600360003373ffffffffffffffffffffffffffffffffffffffff1673ffffffffffffffffffffffffffffffffffffffff168152602001908152602001600020546040518363ffffffff1660e01b8152600401610435929190610bf2565b6020604051808303816000875af1158015610454573d6000803e3d6000fd5b505050506040513d601f19601f820116820180604052508101906104789190610c53565b506000600360003373ffffffffffffffffffffffffffffffffffffffff1673ffffffffffffffffffffffffffffffffffffffff168152602001908152602001600020819055503373ffffffffffffffffffffffffffffffffffffffff167f47cee97cb7acd717b3c0aa1435d004cd5b3c8c57d70dbceb4e4458bbd60e39d4600360003373ffffffffffffffffffffffffffffffffffffffff1673ffffffffffffffffffffffffffffffffffffffff168152602001908152602001600020546040516105439190610b4b565b60405180910390a2565b60036020528060005260406000206000915090505481565b600460003373ffffffffffffffffffffffffffffffffffffffff1673ffffffffffffffffffffffffffffffffffffffff16815260200190815260200160002060009054906101000a900460ff16610672576005339080600181540180825580915050600190039060005260206000200160009091909190916101000a81548173ffffffffffffffffffffffffffffffffffffffff021916908373ffffffffffffffffffffffffffffffffffffffff1602179055506001600460003373ffffffffffffffffffffffffffffffffffffffff1673ffffffffffffffffffffffffffffffffffffffff16815260200190815260200160002060006101000a81548160ff0219169083151502179055505b61067a610912565b8060008054906101000a900473ffffffffffffffffffffffffffffffffffffffff1673ffffffffffffffffffffffffffffffffffffffff1663dd62ed3e33306040518363ffffffff1660e01b81526004016106d6929190610d9e565b602060405180830381865afa1580156106f3573d6000803e3d6000fd5b505050506040513d601f19601f820116820180604052508101906107179190610ddc565b1015610758576040517f08c379a000000000000000000000000000000000000000000000000000000000815260040161074f90610e7b565b60405180910390fd5b60008054906101000a900473ffffffffffffffffffffffffffffffffffffffff1673ffffffffffffffffffffffffffffffffffffffff166323b872dd3330846040518463ffffffff1660e01b81526004016107b593929190610e9b565b6020604051808303816000875af11580156107d4573d6000803e3d6000fd5b505050506040513d601f19601f820116820180604052508101906107f89190610c53565b5080600260003373ffffffffffffffffffffffffffffffffffffffff1673ffffffffffffffffffffffffffffffffffffffff16815260200190815260200160002060008282546108489190610ed2565b9250508190555080600660008282546108619190610ed2565b925050819055503373ffffffffffffffffffffffffffffffffffffffff167f90890809c654f11d6e72a28fa60149770a0d11ec6c92319d6ceb2bb0a4ea1a1582600260003373ffffffffffffffffffffffffffffffffffffffff1673ffffffffffffffffffffffffffffffffffffffff168152602001908152602001600020546040516108ef929190610ce3565b60405180910390a250565b60026020528060005260406000206000915090505481565b600060646007546109239190610f28565b4361092e9190610caf565b905060005b600580549050811015610a3e57600260006005838154811061095857610957610f82565b5b9060005260206000200160009054906101000a900473ffffffffffffffffffffffffffffffffffffffff1673ffffffffffffffffffffffffffffffffffffffff1673ffffffffffffffffffffffffffffffffffffffff16815260200190815260200160002054600654836109cc9190610fe0565b6109d69190610f28565b600360003373ffffffffffffffffffffffffffffffffffffffff1673ffffffffffffffffffffffffffffffffffffffff1681526020019081526020016000206000828254610a249190610ed2565b925050819055508080610a3690611011565b915050610933565b504360078190555050565b600080fd5b6000819050919050565b610a6181610a4e565b8114610a6c57600080fd5b50565b600081359050610a7e81610a58565b92915050565b600060208284031215610a9a57610a99610a49565b5b6000610aa884828501610a6f565b91505092915050565b600073ffffffffffffffffffffffffffffffffffffffff82169050919050565b6000610adc82610ab1565b9050919050565b610aec81610ad1565b8114610af757600080fd5b50565b600081359050610b0981610ae3565b92915050565b600060208284031215610b2557610b24610a49565b5b6000610b3384828501610afa565b91505092915050565b610b4581610a4e565b82525050565b6000602082019050610b606000830184610b3c565b92915050565b600082825260208201905092915050565b7f596f7520646f206e6f74206861766520656e6f75676820746f6b656e732e0000600082015250565b6000610bad601e83610b66565b9150610bb882610b77565b602082019050919050565b60006020820190508181036000830152610bdc81610ba0565b9050919050565b610bec81610ad1565b82525050565b6000604082019050610c076000830185610be3565b610c146020830184610b3c565b9392505050565b60008115159050919050565b610c3081610c1b565b8114610c3b57600080fd5b50565b600081519050610c4d81610c27565b92915050565b600060208284031215610c6957610c68610a49565b5b6000610c7784828501610c3e565b91505092915050565b7f4e487b7100000000000000000000000000000000000000000000000000000000600052601160045260246000fd5b6000610cba82610a4e565b9150610cc583610a4e565b925082821015610cd857610cd7610c80565b5b828203905092915050565b6000604082019050610cf86000830185610b3c565b610d056020830184610b3c565b9392505050565b7f596f7520646f206e6f74206861766520616e79206c6971756964697479206d6960008201527f6e696e6720726576656e75652e00000000000000000000000000000000000000602082015250565b6000610d68602d83610b66565b9150610d7382610d0c565b604082019050919050565b60006020820190508181036000830152610d9781610d5b565b9050919050565b6000604082019050610db36000830185610be3565b610dc06020830184610be3565b9392505050565b600081519050610dd681610a58565b92915050565b600060208284031215610df257610df1610a49565b5b6000610e0084828501610dc7565b91505092915050565b7f596f752068617665206e6f7420617070726f766520656e6f75676820746f6b6560008201527f6e732e0000000000000000000000000000000000000000000000000000000000602082015250565b6000610e65602383610b66565b9150610e7082610e09565b604082019050919050565b60006020820190508181036000830152610e9481610e58565b9050919050565b6000606082019050610eb06000830186610be3565b610ebd6020830185610be3565b610eca6040830184610b3c565b949350505050565b6000610edd82610a4e565b9150610ee883610a4e565b9250827fffffffffffffffffffffffffffffffffffffffffffffffffffffffffffffffff03821115610f1d57610f1c610c80565b5b828201905092915050565b6000610f3382610a4e565b9150610f3e83610a4e565b9250817fffffffffffffffffffffffffffffffffffffffffffffffffffffffffffffffff0483118215151615610f7757610f76610c80565b5b828202905092915050565b7f4e487b7100000000000000000000000000000000000000000000000000000000600052603260045260246000fd5b7f4e487b7100000000000000000000000000000000000000000000000000000000600052601260045260246000fd5b6000610feb82610a4e565b9150610ff683610a4e565b92508261100657611005610fb1565b5b828204905092915050565b600061101c82610a4e565b91507fffffffffffffffffffffffffffffffffffffffffffffffffffffffffffffffff82141561104f5761104e610c80565b5b60018201905091905056fea26469706673582212209582d5dd33c25b73c57d0d24adfdc7a8cce3484665135d2ffb8773b5521efe8a64736f6c634300080a0033",
  "immutableReferences": {},
  "source": "// SPDX-License-Identifier: MIT\r\npragma solidity ^0.8.7;\r\nimport './ERC20.sol';\r\n\r\ncontract Pool{\r\n    ERC20 MyToken;\r\n    ERC20 MyUSDT;\r\n    mapping (address => uint) public ledger;  //MyToken\r\n    mapping (address => uint) public distributed;  //\r\n    mapping (address => bool) exist;\r\n    address[] addresses;\r\n    uint MyTokenAmount;\r\n    uint lastHeight;\r\n    constructor(address addr1,address addr2){\r\n        MyToken = ERC20(addr1);\r\n        MyUSDT = ERC20(addr2);\r\n    }\r\n\r\n    event Deposit(address indexed sender, uint amount,uint balance);\r\n    event Withdraw(address indexed sender, uint amount,uint balance);\r\n    event Claim(address indexed sender,uint amount);\r\n    \r\n    function distribute() internal{\r\n        uint amount = block.number-lastHeight * 100;\r\n        for(uint i = 0 ; i < addresses.length ; i++){\r\n            distributed[msg.sender] += amount/MyTokenAmount*ledger[addresses[i]];\r\n        }\r\n        lastHeight = block.number;\r\n    }\r\n\r\n    function deposit(uint amount) external{\r\n        //\r\n        if(!exist[msg.sender]){\r\n            addresses.push(msg.sender);\r\n            exist[msg.sender] = true;\r\n        }\r\n\r\n        distribute();\r\n\r\n        require(MyToken.allowance(msg.sender,address(this))>=amount,\"You have not approve enough tokens.\");\r\n        MyToken.transferFrom(msg.sender,address(this),amount);\r\n        ledger[msg.sender] += amount;\r\n        MyTokenAmount += amount;\r\n        emit Deposit(msg.sender,amount,ledger[msg.sender]);\r\n    }\r\n\r\n    function withdraw(uint amount) external{\r\n        require(ledger[msg.sender] >= amount,\"You do not have enough tokens.\");\r\n        distribute();\r\n\r\n        MyToken.transfer(msg.sender,amount);\r\n        ledger[msg.sender] -= amount;\r\n        emit Withdraw(msg.sender,amount,ledger[msg.sender]);\r\n    }\r\n\r\n    function claim() external{\r\n        require(distributed[msg.sender] > 0,\"You do not have any liquidity mining revenue.\");\r\n        distribute();\r\n\r\n        MyUSDT.transfer(msg.sender,distributed[msg.sender]);\r\n        distributed[msg.sender] = 0;\r\n        emit Claim(msg.sender,distributed[msg.sender]);\r\n    }\r\n}\r\n",
  "sourcePath": "C:\\Users\\10201\\Desktop\\liquidity mining\\contracts\\Pool.sol",
  "compiler": {
    "name": "solc",
    "version": "0.8.10+commit.fc410830.Emscripten.clang"
  },
  "schemaVersion": "3.4.3",
  "updatedAt": "2023-04-20T02:50:26.301Z",
  "networkType": "ethereum",
  "devdoc": {
    "kind": "dev",
    "methods": {},
    "version": 1
  },
  "userdoc": {
    "kind": "user",
    "methods": {},
    "version": 1
  }
}